:020000040800F2
:100000009805002005010008531700080F16000886
:100010005117000835020008EF1A00080000000020
:10002000000000000000000000000000771700083A
:100030003702000800000000751700087917000853
:100040001F0100081F0100081F0100081F01000810
:100050001F0100081F0100081F0100081F01000800
:100060001F0100081F0100081F0100081F010008F0
:100070001F0100081F0100081F0100081F010008E0
:100080001F0100081F0100081F0100081F010008D0
:100090001F0100081F0100081F0100081F010008C0
:1000A0001F0100081F0100081F0100081F010008B0
:1000B0001F010008391800081F0100081F0100086F
:1000C0001F0100081F0100081F0100081F01000890
:1000D0001F0100081F0100081F0100081F01000880
:1000E0001F0100081F0100081F010008DFF810D0E1
:1000F00000F030F8004800479D1C0008AFF3008076
:10010000980500200648804706480047FEE7FEE7BE
:10011000FEE7FEE7FEE7FEE7FEE7FEE7FEE7FEE7B7
:10012000F1170008ED00000830B50B46014600202D
:100130002022012409E021FA02F59D4205D303FAA9
:1001400002F5491B04FA02F52844151EA2F101022A
:10015000F1DC30BD064C074D06E0E06840F00103DD
:1001600094E8070098471034AC42F6D3FFF7C2FF7B
:10017000AC1D0008CC1D000870B5044600688168FD
:10018000C943C9071BD1816821F00101816000F0DA
:10019000E9FA05460EE000F0E5FA401B022809D90D
:1001A000A06A40F01000A062E06A40F00100E06246
:1001B000012070BD20688068C043C007EBD00020DC
:1001C00070BD0000F8B500260446009600688168FE
:1001D000C943C90727D0816841F0010181601348F4
:1001E00013490068B0FBF1F000E0401E00900028C9
:1001F000FBD100F0B7FA054610E000F0B3FA401B5F
:1002000002280BD9A06A40F01000A062E06A40F01A
:100210000100E06284F824600120F8BD2068806855
:10022000C043C007E9D10020F8BD000058000020FD
:1002300040420F00FEE77047F8B50023009390F8A6
:1002400024201C46012A12D0012280F824204A686A
:100250001F26072A0DD205686F6B521E02EB820221
:100260009640B7430E68964037436F6319E002200B
:10027000F8BD05680D2A0AD22F6BD21F02EB82024D
:100280009640B7430E68964037432F6309E0EF6A04
:100290000D3A02EB82029640B7430E689640374310
:1002A000EF620A68072605680A2A0AD3EF680A3A45
:1002B00002EB42029640B7438E6896403743EF60A8
:1002C00008E02F6902EB42029640B7438E689640E1
:1002D00037432F610A68102A01D0112A20D1124D0C
:1002E0000268AA4217D195682D0219D4956845F481
:1002F000000595600968102912D10C490C4A09685B
:10030000B1FBF2F101EB8101490000E0491E0091CF
:100310000029FBD104E0816A41F0200181620123C0
:1003200080F824401846F8BD002401405800002001
:1003300040420F000068C06C704700002DE9F0419A
:100340004FF00006040035467DD0A06A002728B98A
:10035000E76284F82470204600F07EF82046FFF71C
:100360000BFFA16AC90600D420B1A06A40F01000BA
:10037000A06268E0A16A21F4885141F00201A16203
:100380006268E169E3680A4346EA43010A43A168F7
:100390004FF48076B14208D0012906D00021D4F86C
:1003A00014C0BCF1010F02D00AE03146F7E7F3B107
:1003B000A36A43F02003A362E36A43F00103E3620C
:1003C0002368D3F804C02CF4694C4CEA010CC3F840
:1003D00004C021688B68DFF874C003EA0C03134380
:1003E0008B60A168B1420BD0012909D00CE0DFF885
:1003F00060C0A3690CEB43330B4343F40061DFE7B8
:10040000218A0D05A5F580152168CB6A23F47003B8
:100410002B43CB62216889680E4B1940914208D169
:10042000E762A16A21F0020141F00101A162BDE889
:10043000F081A06A20F0020040F01000A062E06AA3
:1004400040F00100E0620120F1E70000FDF7E1FF6C
:1004500000E0FFFFFE0E1FFF10B5124C0168124AAC
:100460000323124886B0A14209D1916941F4007179
:100470009161916901F40071049101210BE00C4C30
:10048000A1420DD1916941F480619161916901F4BA
:10049000806104910221CDE90013694600F078F8EB
:1004A00006B010BD002401400010024000080140C9
:1004B0000028014070B5044690F8240001280DD0B2
:1004C000012084F824002046FFF77CFE01004FF055
:1004D000000205D084F82420084670BD022070BDBB
:1004E000A06A40F20123984340F48070A0621F4D3F
:1004F00020681F4BA84218D11E6816F4702F14D024
:10050000A66A46F48016A6621E68760505D5A66A18
:1005100026F4005646F48056A662A66AF6040AD56A
:10052000E66A26F00606E66206E0A66A26F480166B
:10053000A6624668E9E7E26284F824206FF00202CE
:10054000026020688268C2F34242072A05D1A842AD
:1005500008D11A6812F4702F04D0826842F4801215
:100560008260B9E7826842F4A002F9E700280140FE
:100570000424014031B500F0F5F8009C0546601CEC
:1005800000D0641C00F0EEF8401BA042FAD338BD46
:100590002DE9F84FDFF8A091002309F1040A0AF1D0
:1005A000040B1C464FF00F080BF1040E01270A68DC
:1005B000A7403A40BA4272D1DFF880C14D68A5EB3E
:1005C0000C0665452BD00DDC032D34D005DC35B38E
:1005D000012D19D0022D2FD11BE0112D16D0122D77
:1005E0002AD119E0B6F5881F19D006DCB6F5803F90
:1005F00015D0B6F5801F1FD111E0B6F5001F0ED043
:10060000B6F5041F18D10AE0CB6815E0CB681B1DB6
:1006100012E0CB6808330FE0CB680C330CE08B683A
:100620002BB1012B4FF0080303D0476104E00423F2
:1006300002E0076100E00023FF2A01D8064601E03E
:1006400000F104064FEA840501D9A5F120053768B9
:1006500008FA05FC27EA0C0703FA05F547EA05073F
:1006600037604D68ED0060D5354DAE6946F0010646
:10067000AE61AD6924F0030605F001050095314D2A
:100680007719BE68A5072D0F08FA05FC26EA0C06A7
:10069000DFF8B4C0604503D14FF0000C17E044E030
:1006A000DFF8A8C0604502D14FF0010C0FE0DFF881
:1006B000A0C0604502D14FF0020C08E0DFF894C002
:1006C000604502D14FF0030C01E04FF0040C0CFA2E
:1006D00005FC4CEA060CC7F808C04D68D9F8006064
:1006E000ED034D4601D5164300E096432E604D685C
:1006F000DAF80060AD03554601D5164300E0964395
:100700002E604D68DBF80060ED025D4601D51643B2
:1007100000E096432E604D68DEF80060AD0275463D
:1007200001D5164300E096432E60641C102CFFF4A4
:100730003DAFBDE8F88F000000040140000011103B
:10074000001002400000014000080140000C014080
:1007500000100140001401400AB101617047090412
:10076000FBE7000001480068704700005C000020C3
:1007700002480168491C0160704700005C000020CD
:10078000074810B5016841F010010160032000F036
:100790008BF8002000F006F800F018F8002010BDDB
:1007A0000020024010B5044607484FF47A710068F3
:1007B000B0FBF1F000F089FB00222146501E00F052
:1007C00053F8002010BD0000580000201E4808B556
:1007D000816941F001018161806900F001000090B0
:1007E000032000F061F8002211466FF00B0000F0CA
:1007F0003BF8002211466FF00A0000F035F80022A5
:1008000011466FF0090000F02FF800221146501F2A
:1008100000F02AF800221146101F00F025F80022EF
:100820001146901E00F020F800221146501E00F0E4
:100830001BF80648416821F0E0614160416841F0E1
:100840000071416008BD000000100240000001403E
:1008500000F01F02012191404009800000F1E020DA
:10086000C0F8001170470000F0B40E4B1B68C3F3D2
:100870000223C3F10704042C00D904241D1D072DF5
:1008800001D2002300E0DB1E012606FA04F56D1EEE
:100890000D409D409E40761E164045EA0601F0BC84
:1008A00000F058BF0CED00E0064A00F007011068A8
:1008B0004FF6FF03184040EA012003490843106047
:1008C000704700000CED00E00000FA052DE9F84348
:1008D00004460078344FC00752D0F8690025C000A4
:1008E00008D4F86940F08050F861F869012500F0FB
:1008F000805000902D480168C90511D401688046D8
:1009000041F480710160FFF72DFF064604E0FFF718
:1009100029FF801B642822D8D8F80000C005F6D52E
:10092000386A10F4407020D0A18801F440718142EF
:100930001BD0386A1E49012220F440700A60002250
:100940000A603862C00710D0FFF70CFF064641F27C
:10095000883807E0FFF706FF811B414502D90320D5
:10096000BDE8F883386A8007F4D5386A616820F4F6
:100970004070084338621DB1F86920F08050F8617A
:100980002078800705D57868A16820F440400843A6
:1009900078602078C00605D57868E16820F480008A
:1009A000084378600020DBE7001002400070004040
:1009B000400442422DE9F047DFF8348104460E46F8
:1009C000D8F8000000F00700B0420CD2D8F80010B0
:1009D00021F007013143C8F80010D8F8000000F0FA
:1009E0000700B04260D12078424F800705D5786873
:1009F000A16820F0F000084378602078C00742D05A
:100A00006068012816D03968022816D089070029A5
:100A10004ADA796821F0030101437960FFF7A2FE09
:100A20000546606841F2883101280ED002288946C7
:100A300017D024E039688903E9E78901E7E7FFF780
:100A400091FE411B494501D916E089467868C0F3FB
:100A500081000128F3D116E0FFF784FE411B4945D0
:100A60000AD87868C0F381000228F5D10BE0FFF7BF
:100A700079FE411B494502D90320BDE8F08778681B
:100A800010F00C0FF3D1D8F80010404601F0070128
:100A9000B1420BD9016821F00701314301600068C0
:100AA00000F00700B04201D00120E6E720784007BF
:100AB00005D57868E16820F4E06008437860207824
:100AC000000706D57868216920F4605040EAC1002B
:100AD000786000F03BF87968074AC1F30311515C74
:100AE000C840064908600020FFF75CFE0020C4E70C
:100AF0000020024000100240941D00085800002011
:100B0000014800687047000058000020044805496B
:100B100000684968044AC1F30221515CC84070472B
:100B20005800002000100240A41D00080448054998
:100B300000684968044AC1F3C221515CC84070474B
:100B40005800002000100240A41D000810B512A09B
:100B500085B00FC88DE80F0013A0144B00680490F7
:100B60005968134801F00C02042A0FD0082A0DD14D
:100B7000C1F38344C9031DF8042009D5596804ABA7
:100B8000C1F34041595CB0FBF1F0504305B010BDDA
:100B900008485043FAE70000020304050607080965
:100BA0000A0B0C0D0E0F1010010200000010024085
:100BB00000127A0000093D002DE9F84F0446007844
:100BC000B64DC00747D06868C0F38100012807D040
:100BD0006868C0F38100022809D16868C00306D59F
:100BE0002868800337D5606800286ED033E06068DD
:100BF000B0F5803F0BD010B1B0F5A02F11D0286810
:100C000020F480302860286820F4802002E02868E2
:100C100040F480302860606888B1FFF7A3FD064685
:100C200009E0286840F480202860F0E7FFF79AFD8B
:100C3000801B642873D828688003F7D50BE0FFF782
:100C400091FD064604E0FFF78DFD801B6428F1D876
:100C500028688003F7D42078DFF8448280074FF0BB
:100C6000010A4FF0000939D5686810F00C0F07D061
:100C70006868C0F38100022809D16868C00306D4FF
:100C80002868800713D5206901281ED10FE020694C
:100C9000A8B1C8F800A0FFF765FD064604E0FFF71D
:100CA00061FD801B0228C5D828688007F7D5286811
:100CB000616920F0F80040EAC10028600EE0C8F841
:100CC0000090FFF74FFD064605E0E5E0FFF74AFD1F
:100CD000801B022823D828688007F7D420780007D3
:100CE0002CD57049A069D8B1C1F800A0FFF73AFD32
:100CF000064604E0FFF736FD801B02280FD8686A1D
:100D00008007F7D568484FF4FA510068B0FBF1F05E
:100D1000009000BF0098411E0091FAD20EE07CE0E6
:100D2000C1F80090FFF71EFD064604E0FFF71AFD2C
:100D3000801B022871D8686A8007F7D420784007A2
:100D40005BD5E8690027C00008D4E86940F080500E
:100D5000E861E869012700F080500090534801687D
:100D6000C90511D40168834641F480710160FFF721
:100D7000F9FC064604E0FFF7F5FC801B64284CD81C
:100D8000DBF80000C005F6D5E06801280AD008B1FC
:100D9000052813D0286A20F001002862286A20F074
:100DA000040002E0286A40F001002862E06841F295
:100DB000883B88B1FFF7D6FC064609E0286A40F078
:100DC00004002862EEE7FFF7CDFC811B59455BD894
:100DD000286A8007F7D50BE0FFF7C4FC064604E05D
:100DE000FFF7C0FC811B59454ED8286A8007F7D40D
:100DF0001FB1E86920F08050E861E069A8B3696834
:100E0000C1F38101022947D00228484606D0C8F81C
:100E10006000FFF7A7FC044639E035E04746C8F814
:100E20006000FFF79FFC064604E0FFF79BFC801B79
:100E3000022829D828688001F7D4206AB0F5803FBD
:100E400005D16868A16820F4003008436860D4E9DF
:100E500008010843696821F4741108436860C7F801
:100E600060A0FFF77FFC044605E013E0FFF77AFC83
:100E7000001B022808D828688001F7D50AE0FFF790
:100E800071FC001B022802D90320BDE8F88F2868F6
:100E90008001F4D40020F8E70120F6E700100240BA
:100EA000000042428004424258000020007000408E
:100EB0004FF0E0210428086903D020F00400086105
:100EC000704740F00400FAE7704710B5401EB0F1DB
:100ED000807F01D3012010BD4FF0E02460610F211D
:100EE000601700F037FC0020A0610720206100207F
:100EF00010BD10B5FFF7E8FF10BD7047704730B563
:100F000090F83C20012A20D0012380F83C300222B6
:100F100080F83D200268546824F070045460026830
:100F200054680D682C4354600268946824F080046F
:100F300094600268946849680C43946080F83D307E
:100F4000002180F83C10084630BD022030BD10B5AD
:100F5000040003D094F83D0010B107E0012010BD5B
:100F6000002084F83C00204600F00CF8022084F8B1
:100F70003D00211D206800F065FC012084F83D0043
:100F8000002010BD08B500680B49884212D10B48FB
:100F9000C16941F00201C161C069002200F0020094
:100FA000009011461D20FFF75FFCBDE808401D20A2
:100FB000FFF74EBC08BD00000004004000100240D6
:100FC0000168CA6842F00102CA600068016841F025
:100FD000010101600020704770B5044690F83C00A4
:100FE000012817D0012584F83C50022084F83D00E8
:100FF0002068826822F0770222F47F4282600868CB
:10100000502836D00DDC202858D005DC80B31028BD
:1010100040D150E0022070BD302852D0402839D154
:101020003EE060282DD070280BD0B0F5805F03D053
:10103000B0F5005F2ED110E02068816821F0070133
:1010400009E0CB68D1E90121206800F031FC20687B
:10105000816841F0770181601CE0CB68D1E9012112
:10106000206800F025FC2068816841F48041F2E7A7
:101070001EE0CA684968206800F02CFC50212068F6
:1010800006E0CA684968206800F035FC60212068E5
:1010900000F018FC84F83D50002084F83C0070BD3E
:1010A000CA684968206800F015FC40212068EFE715
:1010B00000212068ECE710212068E9E72021206862
:1010C000E6E730212068E3E7704770B50446006822
:1010D00001694FF00005C943890715D4C168C943A8
:1010E000890711D4E91E01610120207720688069F9
:1010F0008007204602D0FFF7E7FF04E000F098F8F1
:10110000204600F096F8257720680169C943490711
:1011100017D4C168C943490713D46FF004010161B2
:10112000022020772068806910F4407F204602D09A
:10113000FFF7CAFF04E000F07BF8204600F079F8E2
:10114000257720680169C943090716D4C168C943D6
:10115000090712D46FF0080101610420207720688C
:10116000C0698007204602D0FFF7AEFF04E000F020
:101170005FF8204600F05DF8257720680169C943D3
:10118000C90617D4C168C943C90613D46FF010014A
:101190000161082020772068C06910F4407F204654
:1011A00002D0FFF791FF04E000F042F8204600F083
:1011B00040F8257720680169C943C90708D1C1688B
:1011C000C943C90704D1891E0161204600F032F8E5
:1011D00020680169C943090609D4C168C9430906E1
:1011E00005D46FF0800101612046FFF786FE20687C
:1011F0000169C943490609D4C168C943490605D4F0
:101200006FF040010161204600F046F92068016955
:10121000C94389060BD4C168C943890607D46FF056
:10122000200101612046BDE87040FFF767BE70BD38
:10123000704770472DE9F05F94490068096888425B
:1012400057D192486038FFF775F8914F800878645D
:10125000F868801CF8603969401AB8648B486038B7
:10126000FFF728F9F969786C052688420BDABA6825
:10127000BB6C92FBF6F202EB42029A4203DABA69C5
:10128000904200DAB861884203DD7A69904200DD5D
:101290007861BA6CDFF8FC91012500244FF4005806
:1012A000FA2A3FDD88423DDD3878D8BBB86890FB2C
:1012B000F6F000EB4000904234DA3D7001224146E6
:1012C0004846FFF749FAD7E90301431ABB60386182
:1012D000DFF8B8C1F8780CF1800C30B1FC70002058
:1012E0004CF82030401C0928FADDB87818B1BC70E1
:1012F000FD70BDE8F09F002108460CEB80025268AB
:101300004CF82020401C11440828F6DD58180A210A
:10131000B0FBF1F04EF66021B1FBF0F0CCF82430D8
:1013200038647D70F969786C884213DA387801285E
:1013300010D1002241464846FFF70EFA3C70D7E92B
:101340000510091A396201EBD17100EB6100F861F7
:101350007861B861B96C40F6C41B4FF4007A594506
:1013600009DDC7F81CA0C7F814A0C7F818A0F868D2
:101370003861BD70FC7045483038FEF7DBFF8008EF
:101380003865B86A801CB862F96A401A78653F48C7
:101390003038FFF78FF8D7F838C0396D61450BDA70
:1013A000786A7A6D90FBF6F000EB4000904203DA29
:1013B000786B814200DA7963614503DD386B8142E5
:1013C00000DD3963B94638467F6DFA2F3FDD614550
:1013D0003DDD0279DABB426A92FBF6F202EB420291
:1013E000BA4234DA0571D0E90A23D61A4662C262DB
:1013F000DFF89880C27908F1A80832B1C4710022E0
:1014000048F82260521C092AFADD99F8060020B13A
:1014100089F8064089F807506BE70022104608EB70
:1014200080035B6848F82030401C1A440828F6DD29
:1014300032440A23B2FBF3F24EF66023B3FBF2F21E
:10144000C8F82460C9F84C20484689F80550614521
:101450000EDA017901290BD10471D0E90C12891A35
:10146000C16301EBD17102EB6101816301634163EF
:101470005F45D1DDC0F838A0C0F830A0C0F834A076
:10148000816AC162857189F8074032E7C400002093
:101490000000002000100140704770B5040004D027
:1014A00094F83900002510B106E0012070BD84F8E1
:1014B0003850204600F022F8242084F839002068B3
:1014C000C16821F40051C160204600F027FA20686D
:1014D000016921F4904101612068416921F02A01EC
:1014E00041612068C16841F40051C160E56320207A
:1014F00084F8390084F83A00002070BD10B5006807
:10150000114986B088421CD11048C16941F40031AC
:10151000C161C0690E4C00F40030049004200090BA
:10152000022001900320039069462046FFF730F81F
:101530000821009100210191029169462046FFF7A0
:1015400027F806B010BD0000004400400010024023
:10155000000801402DE9F843044690F839001E4682
:1015600017460D46202850D1A5B19FB194F83800F8
:1015700001284AD0012084F838004FF00008C4F850
:101580003C80212084F83900FFF7ECF8A7848146DD
:10159000E78426E00120BDE8F883E08C401EE0846B
:1015A000A0684B46B0F5805F4FF000024FF080011D
:1015B0002046009603D000F069FAE8B90DE000F08B
:1015C00065FAC8B928882168C0F308004860206916
:1015D00008B16D1C05E0AD1C03E0216815F8010B96
:1015E0004860E08C0028D8D14B460022402120469C
:1015F000009600F04BFA08B10320CCE7202084F8D5
:10160000390084F838800020C5E70220C3E7FEE7F0
:101610003EB50F4800240D498460C46044610160F8
:10162000012505614FF460214460C161FEF786FE2B
:1016300000B1FEE702200094CDE90150694604485C
:10164000FEF7FAFD002800D0FEE73EBD0024014071
:10165000640000203EB50F4800240D498460C4603A
:1016600044610160012505614FF460214460C1615E
:10167000FEF764FE00B1FEE70095CDE9015469462E
:101680000448FEF7D9FD002800D0FEE73EBD00006B
:10169000002801409400002030B5164885B08169CB
:1016A00041F010018161816901F0100104918169AB
:1016B00041F004018161816901F0040104918169B3
:1016C00041F00801816180690B4D00F008004FF482
:1016D00000540490002221462846FFF73DF80121DE
:1016E000CDE900410221039169462846FEF750FFEB
:1016F00005B030BD001002400010014010B5134885
:1017000086B01149016007210024C0E9011440F2AC
:10171000CF71C0E903148461FFF719FC00B1FEE743
:101720004FF48050009069460848FFF755FC00B11F
:10173000FEE7049404A905480594FFF7E0FB0028A0
:1017400000D0FEE706B010BD00040040C400002039
:10175000FEE770470907090E002806DA00F00F00BF
:1017600000F1E02080F8141D704700F1E02080F8BF
:10177000001470477047704710B5FEF7F9FFBDE8D9
:101780001040FFF7B6BB30B593B00120022504909E
:10179000009510200024059007946846FFF70CFA86
:1017A00000B1FEE70F20CDE90A040C940D9400214E
:1017B0000AA80E94FFF7FEF800B1FEE70FA80F95F8
:1017C0001194FFF783F800B1FEE7FFF799F94FF4A2
:1017D0007A71B0FBF1F0FFF778FB0420FFF768FBAC
:1017E00000221146501EFFF73FF813B030BD000035
:1017F0000D48016841F00101016041680B4A114048
:10180000416001680A4A11400160016821F48021A9
:101810000160416821F4FE0141604FF41F018160C5
:101820000449C00308607047001002400000FFF840
:10183000FFFFF6FE08ED00E00148FFF746BC0000A0
:10184000C4000020F0B50268164C174D174E4FF03B
:101850008047A04205D0B84203D0A84201D0B04290
:1018600003D122F070034A681A43A04205D0B8425F
:1018700003D0A84201D0B04203D122F44073CA6819
:101880001A434B6922F08002134303608A68C262E4
:101890000A688262A04201D10969016301214161A4
:1018A000F0BD0000002C0140000400400008004092
:1018B00010B5846842EA032224F47F440A43224399
:1018C000826010BD826822F070020A4342F0070174
:1018D0008160704710B5046A036A23F00103036254
:1018E000836923F0F00343EA021324F00A020A4357
:1018F0008361026210BD10B5036A23F01003036216
:101900008469036A24F4704444EA023223F0A00399
:1019100043EA01118261016210BD00002DE9F0412E
:10192000044600680169E26821F4405111430161F5
:10193000A16820690143606901432068C26841F2DF
:101940000C639A430A43C26020684169A26921F48A
:101950004071114341614C49206864263227884216
:101960003CD1FFF7E3F800EBC00101EB0010616828
:101970008900B0FBF1F5FFF7D9F800EBC00101EBEE
:1019800000106168B8468900B0FBF1F0B0FBF6F0DA
:101990006FF01801484305EB800107EB0110B0FB25
:1019A000F6F000F0F005FFF7C1F800EBC00101EB25
:1019B000001061688900B0FBF1F0B0FBF6F005EBB8
:1019C0000015FFF7B3F800EBC00101EB00106168F0
:1019D0008900B0FBF1F7FFF7A9F83BE0FFF796F8B5
:1019E00000EBC00101EB001061688900B0FBF1F56C
:1019F000FFF78CF800EBC00101EB00106168B846FE
:101A00008900B0FBF1F0B0FBF6F06FF0180148432D
:101A100005EB800107EB0110B0FBF6F000F0F005DC
:101A2000FFF774F800EBC00101EB0010616889005A
:101A3000B0FBF1F0B0FBF6F005EB0015FFF766F830
:101A400000EBC00101EB001061688900B0FBF1F709
:101A5000FFF75CF800EBC00101EB00106168890042
:101A6000B0FBF1F0B0FBF6F06FF01801484307EB64
:101A7000800108EB0110B0FBF6F0216800F00F00C8
:101A800028448860BDE8F081003801402DE9F0412C
:101A90001E46174688460446069D1CE0681C1AD060
:101AA00025B1FEF75FFE801BA84214D92068C168EB
:101AB00021F4D071C1602068416921F001014161C8
:101AC000202084F8390084F83A00002084F8380097
:101AD0000320BDE8F0812068016838EA010004D0E5
:101AE0000020B842DAD00020F3E70120F9E7FEE752
:101AF0000FB4054B10B503A9044A029800F018F87A
:101B000010BC5DF814FB0000851C0008600000207C
:101B100002E008C8121F08C1002AFAD170477047B6
:101B2000002001E001C1121F002AFBD17047000014
:101B30002DE9FF4F89B09B460446002506E0252885
:101B40000BD05A460B999047641C6D1C20780028D6
:101B5000F5D10DB02846BDE8F08F0027B846012228
:101B6000474900E0074314F8013F203B02FA03F025
:101B70000842F7D120782E2819D114F8010F47F028
:101B800004072A280ED06FF02F022078A0F1300130
:101B900009290CD808EB880102EB410100EB010890
:101BA000641CF2E70A98641C50F8048B0A902078B1
:101BB0000028CED0642808D0692806D075281ED009
:101BC0005A460B9990476D1C58E00A994FF00A0944
:101BD00001C90A91002802DA40422D2102E03905AC
:101BE00004D52B218DF82010012103E0F90704D042
:101BF0002021F7E78A4608AE0DE00021FAE70A99AE
:101C00004FF00A0901C90A91F7E74946FEF78CFA35
:101C1000303106F8011D0028F7D1ADEB060000F1C8
:101C20002009780701D44FF00108C84502DDA8EB70
:101C3000090000E000208046002706E008A85A4678
:101C4000C05D0B9990476D1C7F1C5745F6DB04E087
:101C500030205A460B9990476D1CB8F10001A8F14D
:101C60000108F5DC05E016F8010B5A460B99904780
:101C70006D1CB9F10001A9F10109F4DC641C65E7F0
:101C80000928010013B54FF6FF7301226946024887
:101C9000FFF760FC00981CBD04010020FEF770FDFA
:101CA000FFF771FDFFF7F8FCFFF7B2FCFFF7D2FC7E
:101CB000FFF724FD27482649002501604FF4E13154
:101CC000C0E901150C21C560C0E904518561C561F9
:101CD000FFF7E3FB00B1FEE71E484038FFF770F95D
:101CE0001D4C1EA0FFF704FF1EA0616CFFF700FF54
:101CF0001EA0FFF7FDFE1BA0216DFFF7F9FE607827
:101D000001280ED11BA0FFF7F3FE16A0216CFFF7F0
:101D1000EFFE1AA0FFF7ECFE12A0A168FFF7E8FEA5
:101D20006570607901280ED116A0FFF7E1FE0DA0C5
:101D3000E16CFFF7DDFE15A0FFF7DAFE09A0616A8E
:101D4000FFF7D6FE65701420FEF714FCC9E700000B
:101D500000440040040100200000002050310D0A22
:101D60000000000025640D0A0000000050320D0A3A
:101D70000000000042310D0A0000000051310D0A40
:101D80000000000042320D0A0000000051320D0A2E
:101D90000000000000000000000000000102030439
:101DA000060708090000000001020304CC1D00081A
:101DB0000000002064000000101B0008301E000816
:101DC0006400002034050000201B00080000010012
:101DD00000000100580200000000000000000000A8
:101DE0000002000000020000000200006400000089
:101DF0005802000000000000000000000002000087
:101E0000000200000002000064000000000000006A
:101E100000000000000000000000000000000000C2
:101E20000000000000A24A040000000000000000C2
:04000005080000ED02
:00000001FF
